{
  "address": "0x25581a20f15b1C5F42E8944Fc84c6C84Dd87c15E",
  "abi": [
    {
      "inputs": [
        {
          "internalType": "uint256",
          "name": "_feePercent",
          "type": "uint256"
        }
      ],
      "stateMutability": "nonpayable",
      "type": "constructor"
    },
    {
      "inputs": [
        {
          "internalType": "address",
          "name": "sender",
          "type": "address"
        },
        {
          "internalType": "uint256",
          "name": "tokenId",
          "type": "uint256"
        },
        {
          "internalType": "address",
          "name": "owner",
          "type": "address"
        }
      ],
      "name": "ERC721IncorrectOwner",
      "type": "error"
    },
    {
      "inputs": [
        {
          "internalType": "address",
          "name": "operator",
          "type": "address"
        },
        {
          "internalType": "uint256",
          "name": "tokenId",
          "type": "uint256"
        }
      ],
      "name": "ERC721InsufficientApproval",
      "type": "error"
    },
    {
      "inputs": [
        {
          "internalType": "address",
          "name": "approver",
          "type": "address"
        }
      ],
      "name": "ERC721InvalidApprover",
      "type": "error"
    },
    {
      "inputs": [
        {
          "internalType": "address",
          "name": "operator",
          "type": "address"
        }
      ],
      "name": "ERC721InvalidOperator",
      "type": "error"
    },
    {
      "inputs": [
        {
          "internalType": "address",
          "name": "owner",
          "type": "address"
        }
      ],
      "name": "ERC721InvalidOwner",
      "type": "error"
    },
    {
      "inputs": [
        {
          "internalType": "address",
          "name": "receiver",
          "type": "address"
        }
      ],
      "name": "ERC721InvalidReceiver",
      "type": "error"
    },
    {
      "inputs": [
        {
          "internalType": "address",
          "name": "sender",
          "type": "address"
        }
      ],
      "name": "ERC721InvalidSender",
      "type": "error"
    },
    {
      "inputs": [
        {
          "internalType": "uint256",
          "name": "tokenId",
          "type": "uint256"
        }
      ],
      "name": "ERC721NonexistentToken",
      "type": "error"
    },
    {
      "inputs": [],
      "name": "EnforcedPause",
      "type": "error"
    },
    {
      "inputs": [],
      "name": "ExpectedPause",
      "type": "error"
    },
    {
      "inputs": [
        {
          "internalType": "address",
          "name": "owner",
          "type": "address"
        }
      ],
      "name": "OwnableInvalidOwner",
      "type": "error"
    },
    {
      "inputs": [
        {
          "internalType": "address",
          "name": "account",
          "type": "address"
        }
      ],
      "name": "OwnableUnauthorizedAccount",
      "type": "error"
    },
    {
      "inputs": [],
      "name": "ReentrancyGuardReentrantCall",
      "type": "error"
    },
    {
      "anonymous": false,
      "inputs": [
        {
          "indexed": true,
          "internalType": "address",
          "name": "owner",
          "type": "address"
        },
        {
          "indexed": true,
          "internalType": "address",
          "name": "approved",
          "type": "address"
        },
        {
          "indexed": true,
          "internalType": "uint256",
          "name": "tokenId",
          "type": "uint256"
        }
      ],
      "name": "Approval",
      "type": "event"
    },
    {
      "anonymous": false,
      "inputs": [
        {
          "indexed": true,
          "internalType": "address",
          "name": "owner",
          "type": "address"
        },
        {
          "indexed": true,
          "internalType": "address",
          "name": "operator",
          "type": "address"
        },
        {
          "indexed": false,
          "internalType": "bool",
          "name": "approved",
          "type": "bool"
        }
      ],
      "name": "ApprovalForAll",
      "type": "event"
    },
    {
      "anonymous": false,
      "inputs": [
        {
          "indexed": false,
          "internalType": "uint256",
          "name": "_fromTokenId",
          "type": "uint256"
        },
        {
          "indexed": false,
          "internalType": "uint256",
          "name": "_toTokenId",
          "type": "uint256"
        }
      ],
      "name": "BatchMetadataUpdate",
      "type": "event"
    },
    {
      "anonymous": false,
      "inputs": [
        {
          "indexed": false,
          "internalType": "uint256",
          "name": "_tokenId",
          "type": "uint256"
        }
      ],
      "name": "MetadataUpdate",
      "type": "event"
    },
    {
      "anonymous": false,
      "inputs": [
        {
          "indexed": false,
          "internalType": "address",
          "name": "to",
          "type": "address"
        },
        {
          "indexed": false,
          "internalType": "uint256",
          "name": "tokenId",
          "type": "uint256"
        },
        {
          "indexed": false,
          "internalType": "string",
          "name": "uri",
          "type": "string"
        }
      ],
      "name": "MintItemLog",
      "type": "event"
    },
    {
      "anonymous": false,
      "inputs": [
        {
          "indexed": true,
          "internalType": "uint256",
          "name": "tokenId",
          "type": "uint256"
        },
        {
          "indexed": true,
          "internalType": "address",
          "name": "seller",
          "type": "address"
        }
      ],
      "name": "NFTDelisted",
      "type": "event"
    },
    {
      "anonymous": false,
      "inputs": [
        {
          "indexed": true,
          "internalType": "uint256",
          "name": "tokenId",
          "type": "uint256"
        },
        {
          "indexed": false,
          "internalType": "uint256",
          "name": "price",
          "type": "uint256"
        },
        {
          "indexed": true,
          "internalType": "address",
          "name": "seller",
          "type": "address"
        }
      ],
      "name": "NFTListed",
      "type": "event"
    },
    {
      "anonymous": false,
      "inputs": [
        {
          "indexed": true,
          "internalType": "address",
          "name": "buyer",
          "type": "address"
        },
        {
          "indexed": true,
          "internalType": "uint256",
          "name": "tokenId",
          "type": "uint256"
        },
        {
          "indexed": false,
          "internalType": "uint256",
          "name": "price",
          "type": "uint256"
        },
        {
          "indexed": false,
          "internalType": "uint256",
          "name": "fee",
          "type": "uint256"
        }
      ],
      "name": "NFTPurchased",
      "type": "event"
    },
    {
      "anonymous": false,
      "inputs": [
        {
          "indexed": true,
          "internalType": "address",
          "name": "previousOwner",
          "type": "address"
        },
        {
          "indexed": true,
          "internalType": "address",
          "name": "newOwner",
          "type": "address"
        }
      ],
      "name": "OwnershipTransferred",
      "type": "event"
    },
    {
      "anonymous": false,
      "inputs": [
        {
          "indexed": false,
          "internalType": "address",
          "name": "account",
          "type": "address"
        }
      ],
      "name": "Paused",
      "type": "event"
    },
    {
      "anonymous": false,
      "inputs": [
        {
          "indexed": true,
          "internalType": "address",
          "name": "from",
          "type": "address"
        },
        {
          "indexed": true,
          "internalType": "address",
          "name": "to",
          "type": "address"
        },
        {
          "indexed": true,
          "internalType": "uint256",
          "name": "tokenId",
          "type": "uint256"
        }
      ],
      "name": "Transfer",
      "type": "event"
    },
    {
      "anonymous": false,
      "inputs": [
        {
          "indexed": false,
          "internalType": "address",
          "name": "account",
          "type": "address"
        }
      ],
      "name": "Unpaused",
      "type": "event"
    },
    {
      "inputs": [
        {
          "internalType": "address",
          "name": "to",
          "type": "address"
        },
        {
          "internalType": "uint256",
          "name": "tokenId",
          "type": "uint256"
        }
      ],
      "name": "approve",
      "outputs": [],
      "stateMutability": "nonpayable",
      "type": "function"
    },
    {
      "inputs": [
        {
          "internalType": "address",
          "name": "owner",
          "type": "address"
        }
      ],
      "name": "balanceOf",
      "outputs": [
        {
          "internalType": "uint256",
          "name": "",
          "type": "uint256"
        }
      ],
      "stateMutability": "view",
      "type": "function"
    },
    {
      "inputs": [
        {
          "internalType": "uint256",
          "name": "_tokenId",
          "type": "uint256"
        }
      ],
      "name": "delistNFT",
      "outputs": [],
      "stateMutability": "nonpayable",
      "type": "function"
    },
    {
      "inputs": [],
      "name": "fee",
      "outputs": [
        {
          "internalType": "uint256",
          "name": "",
          "type": "uint256"
        }
      ],
      "stateMutability": "view",
      "type": "function"
    },
    {
      "inputs": [
        {
          "internalType": "uint256",
          "name": "tokenId",
          "type": "uint256"
        }
      ],
      "name": "getApproved",
      "outputs": [
        {
          "internalType": "address",
          "name": "",
          "type": "address"
        }
      ],
      "stateMutability": "view",
      "type": "function"
    },
    {
      "inputs": [
        {
          "internalType": "uint256",
          "name": "_tokenId",
          "type": "uint256"
        }
      ],
      "name": "getListing",
      "outputs": [
        {
          "components": [
            {
              "internalType": "uint256",
              "name": "price",
              "type": "uint256"
            },
            {
              "internalType": "address",
              "name": "seller",
              "type": "address"
            },
            {
              "internalType": "bool",
              "name": "active",
              "type": "bool"
            }
          ],
          "internalType": "struct NFTMarketplace.Listing",
          "name": "",
          "type": "tuple"
        }
      ],
      "stateMutability": "view",
      "type": "function"
    },
    {
      "inputs": [
        {
          "internalType": "address",
          "name": "owner",
          "type": "address"
        },
        {
          "internalType": "address",
          "name": "operator",
          "type": "address"
        }
      ],
      "name": "isApprovedForAll",
      "outputs": [
        {
          "internalType": "bool",
          "name": "",
          "type": "bool"
        }
      ],
      "stateMutability": "view",
      "type": "function"
    },
    {
      "inputs": [
        {
          "internalType": "address",
          "name": "_owner",
          "type": "address"
        },
        {
          "internalType": "uint256",
          "name": "_tokenId",
          "type": "uint256"
        }
      ],
      "name": "isOwner",
      "outputs": [
        {
          "internalType": "bool",
          "name": "",
          "type": "bool"
        }
      ],
      "stateMutability": "view",
      "type": "function"
    },
    {
      "inputs": [
        {
          "internalType": "uint256",
          "name": "_tokenId",
          "type": "uint256"
        },
        {
          "internalType": "uint256",
          "name": "_price",
          "type": "uint256"
        }
      ],
      "name": "listNFT",
      "outputs": [],
      "stateMutability": "nonpayable",
      "type": "function"
    },
    {
      "inputs": [
        {
          "internalType": "uint256",
          "name": "",
          "type": "uint256"
        }
      ],
      "name": "listings",
      "outputs": [
        {
          "internalType": "uint256",
          "name": "price",
          "type": "uint256"
        },
        {
          "internalType": "address",
          "name": "seller",
          "type": "address"
        },
        {
          "internalType": "bool",
          "name": "active",
          "type": "bool"
        }
      ],
      "stateMutability": "view",
      "type": "function"
    },
    {
      "inputs": [
        {
          "internalType": "address",
          "name": "to",
          "type": "address"
        },
        {
          "internalType": "string",
          "name": "uri",
          "type": "string"
        }
      ],
      "name": "mintItem",
      "outputs": [
        {
          "internalType": "uint256",
          "name": "",
          "type": "uint256"
        }
      ],
      "stateMutability": "nonpayable",
      "type": "function"
    },
    {
      "inputs": [],
      "name": "name",
      "outputs": [
        {
          "internalType": "string",
          "name": "",
          "type": "string"
        }
      ],
      "stateMutability": "view",
      "type": "function"
    },
    {
      "inputs": [],
      "name": "owner",
      "outputs": [
        {
          "internalType": "address",
          "name": "",
          "type": "address"
        }
      ],
      "stateMutability": "view",
      "type": "function"
    },
    {
      "inputs": [
        {
          "internalType": "uint256",
          "name": "tokenId",
          "type": "uint256"
        }
      ],
      "name": "ownerOf",
      "outputs": [
        {
          "internalType": "address",
          "name": "",
          "type": "address"
        }
      ],
      "stateMutability": "view",
      "type": "function"
    },
    {
      "inputs": [],
      "name": "paused",
      "outputs": [
        {
          "internalType": "bool",
          "name": "",
          "type": "bool"
        }
      ],
      "stateMutability": "view",
      "type": "function"
    },
    {
      "inputs": [
        {
          "internalType": "uint256",
          "name": "_tokenId",
          "type": "uint256"
        }
      ],
      "name": "purchaseNFT",
      "outputs": [],
      "stateMutability": "payable",
      "type": "function"
    },
    {
      "inputs": [],
      "name": "renounceOwnership",
      "outputs": [],
      "stateMutability": "nonpayable",
      "type": "function"
    },
    {
      "inputs": [
        {
          "internalType": "address",
          "name": "from",
          "type": "address"
        },
        {
          "internalType": "address",
          "name": "to",
          "type": "address"
        },
        {
          "internalType": "uint256",
          "name": "tokenId",
          "type": "uint256"
        }
      ],
      "name": "safeTransferFrom",
      "outputs": [],
      "stateMutability": "nonpayable",
      "type": "function"
    },
    {
      "inputs": [
        {
          "internalType": "address",
          "name": "from",
          "type": "address"
        },
        {
          "internalType": "address",
          "name": "to",
          "type": "address"
        },
        {
          "internalType": "uint256",
          "name": "tokenId",
          "type": "uint256"
        },
        {
          "internalType": "bytes",
          "name": "data",
          "type": "bytes"
        }
      ],
      "name": "safeTransferFrom",
      "outputs": [],
      "stateMutability": "nonpayable",
      "type": "function"
    },
    {
      "inputs": [
        {
          "internalType": "address",
          "name": "operator",
          "type": "address"
        },
        {
          "internalType": "bool",
          "name": "approved",
          "type": "bool"
        }
      ],
      "name": "setApprovalForAll",
      "outputs": [],
      "stateMutability": "nonpayable",
      "type": "function"
    },
    {
      "inputs": [
        {
          "internalType": "bytes4",
          "name": "interfaceId",
          "type": "bytes4"
        }
      ],
      "name": "supportsInterface",
      "outputs": [
        {
          "internalType": "bool",
          "name": "",
          "type": "bool"
        }
      ],
      "stateMutability": "view",
      "type": "function"
    },
    {
      "inputs": [],
      "name": "symbol",
      "outputs": [
        {
          "internalType": "string",
          "name": "",
          "type": "string"
        }
      ],
      "stateMutability": "view",
      "type": "function"
    },
    {
      "inputs": [
        {
          "internalType": "uint256",
          "name": "tokenId",
          "type": "uint256"
        }
      ],
      "name": "tokenURI",
      "outputs": [
        {
          "internalType": "string",
          "name": "",
          "type": "string"
        }
      ],
      "stateMutability": "view",
      "type": "function"
    },
    {
      "inputs": [
        {
          "internalType": "address",
          "name": "from",
          "type": "address"
        },
        {
          "internalType": "address",
          "name": "to",
          "type": "address"
        },
        {
          "internalType": "uint256",
          "name": "tokenId",
          "type": "uint256"
        }
      ],
      "name": "transferFrom",
      "outputs": [],
      "stateMutability": "nonpayable",
      "type": "function"
    },
    {
      "inputs": [
        {
          "internalType": "address",
          "name": "newOwner",
          "type": "address"
        }
      ],
      "name": "transferOwnership",
      "outputs": [],
      "stateMutability": "nonpayable",
      "type": "function"
    }
  ],
  "transactionHash": "0x48cce29d7d2d8ab15b9903186e07194efad58be1cde261e7430a050685b6f1f6",
  "args": [
    2
  ],
  "numDeployments": 4,
  "solcInputHash": "c2daf78d16503463aff2f29fd1c8f932",
  "bytecode": "0x608060405234801561001057600080fd5b5060405161236038038061236083398101604081905261002f9161013a565b336040518060400160405280600f81526020016e26bca7232a21b7b63632b1ba34b7b760891b815250604051806040016040528060048152602001631353919560e21b815250816000908161008491906101f2565b50600161009182826101f2565b5050506001600160a01b0381166100c257604051631e4fbdf760e01b81526000600482015260240160405180910390fd5b6100cb816100e8565b5060016008556009805460ff19169055600b556000600a556102b0565b600780546001600160a01b038381166001600160a01b0319831681179093556040519116919082907f8be0079c531659141344cd1fd0a4f28419497f9722a3daafe3b4186f6b6457e090600090a35050565b60006020828403121561014c57600080fd5b5051919050565b634e487b7160e01b600052604160045260246000fd5b600181811c9082168061017d57607f821691505b60208210810361019d57634e487b7160e01b600052602260045260246000fd5b50919050565b601f8211156101ed57806000526020600020601f840160051c810160208510156101ca5750805b601f840160051c820191505b818110156101ea57600081556001016101d6565b50505b505050565b81516001600160401b0381111561020b5761020b610153565b61021f816102198454610169565b846101a3565b6020601f821160018114610253576000831561023b5750848201515b600019600385901b1c1916600184901b1784556101ea565b600084815260208120601f198516915b828110156102835787850151825560209485019460019092019101610263565b50848210156102a15786840151600019600387901b60f8161c191681555b50505050600190811b01905550565b6120a1806102bf6000396000f3fe6080604052600436106101665760003560e01c8063715018a6116100d1578063c87b56dd1161008a578063de74e57b11610064578063de74e57b14610497578063e327a6af14610505578063e985e9c514610525578063f2fde38b1461054557600080fd5b8063c87b56dd14610441578063cb917b9c14610461578063ddca3f431461048157600080fd5b8063715018a6146103995780638da5cb5b146103ae57806394383f14146103cc57806395d89b41146103ec578063a22cb46514610401578063b88d4fde1461042157600080fd5b8063150bde0311610123578063150bde03146102ee57806323b872dd1461030157806342842e0e146103215780635c975abb146103415780636352211e1461035957806370a082311461037957600080fd5b806301ffc9a71461016b57806306fdde03146101a0578063081812fc146101c2578063095ea7b3146101fa578063107a274a1461021c578063110bcd45146102c0575b600080fd5b34801561017757600080fd5b5061018b610186366004611ac1565b610565565b60405190151581526020015b60405180910390f35b3480156101ac57600080fd5b506101b5610590565b6040516101979190611b2e565b3480156101ce57600080fd5b506101e26101dd366004611b41565b610622565b6040516001600160a01b039091168152602001610197565b34801561020657600080fd5b5061021a610215366004611b76565b61064b565b005b34801561022857600080fd5b50610293610237366004611b41565b604080516060808201835260008083526020808401829052928401819052938452600c8252928290208251938401835280548452600101546001600160a01b03811691840191909152600160a01b900460ff1615159082015290565b60408051825181526020808401516001600160a01b03169082015291810151151590820152606001610197565b3480156102cc57600080fd5b506102e06102db366004611c30565b61065a565b604051908152602001610197565b61021a6102fc366004611b41565b6106c8565b34801561030d57600080fd5b5061021a61031c366004611c92565b610af9565b34801561032d57600080fd5b5061021a61033c366004611c92565b610b84565b34801561034d57600080fd5b5060095460ff1661018b565b34801561036557600080fd5b506101e2610374366004611b41565b610ba4565b34801561038557600080fd5b506102e0610394366004611ccf565b610baf565b3480156103a557600080fd5b5061021a610bf7565b3480156103ba57600080fd5b506007546001600160a01b03166101e2565b3480156103d857600080fd5b5061021a6103e7366004611cea565b610c0b565b3480156103f857600080fd5b506101b5610e55565b34801561040d57600080fd5b5061021a61041c366004611d0c565b610e64565b34801561042d57600080fd5b5061021a61043c366004611d48565b610e6f565b34801561044d57600080fd5b506101b561045c366004611b41565b610e86565b34801561046d57600080fd5b5061021a61047c366004611b41565b610f97565b34801561048d57600080fd5b506102e0600b5481565b3480156104a357600080fd5b506104e06104b2366004611b41565b600c60205260009081526040902080546001909101546001600160a01b03811690600160a01b900460ff1683565b604080519384526001600160a01b039092166020840152151590820152606001610197565b34801561051157600080fd5b5061018b610520366004611b76565b6110b5565b34801561053157600080fd5b5061018b610540366004611dc4565b6110db565b34801561055157600080fd5b5061021a610560366004611ccf565b611109565b60006001600160e01b03198216632483248360e11b148061058a575061058a82611144565b92915050565b60606000805461059f90611df7565b80601f01602080910402602001604051908101604052809291908181526020018280546105cb90611df7565b80156106185780601f106105ed57610100808354040283529160200191610618565b820191906000526020600020905b8154815290600101906020018083116105fb57829003601f168201915b5050505050905090565b600061062d82611194565b506000828152600460205260409020546001600160a01b031661058a565b6106568282336111cd565b5050565b600a805460009181908361066d83611e47565b919050555061067c84826111da565b61068681846111f4565b7f583a4367b2112d2f43ddce7dea80105c9ba7fb88851af112dd48ace0276da2268482856040516106b993929190611e60565b60405180910390a19392505050565b6106d0611244565b6106d8611268565b6000818152600c60205260409020600101548190600160a01b900460ff166107475760405162461bcd60e51b815260206004820152601a60248201527f4e4654206973206e6f74206c697374656420666f722073616c6500000000000060448201526064015b60405180910390fd5b6000828152600c6020908152604091829020825160608101845281548082526001909201546001600160a01b03811693820193909352600160a01b90920460ff16151592820192909252903410156107d65760405162461bcd60e51b8152602060048201526012602482015271496e73756666696369656e742066756e647360701b604482015260640161073e565b80602001516001600160a01b03166107ed84610ba4565b6001600160a01b0316146108435760405162461bcd60e51b815260206004820152601e60248201527f53656c6c6572206e6f206c6f6e676572206f776e732074686973204e46540000604482015260640161073e565b8051600b546000906064906108589084611e90565b6108629190611ea7565b905060006108708284611ec9565b905061088184602001513388611292565b60006108956007546001600160a01b031690565b6001600160a01b03168360405160006040518083038185875af1925050503d80600081146108df576040519150601f19603f3d011682016040523d82523d6000602084013e6108e4565b606091505b50509050806109355760405162461bcd60e51b815260206004820152601b60248201527f4661696c656420746f2073656e642066656520746f206f776e65720000000000604482015260640161073e565b600085602001516001600160a01b03168360405160006040518083038185875af1925050503d8060008114610986576040519150601f19603f3d011682016040523d82523d6000602084013e61098b565b606091505b50509050806109dc5760405162461bcd60e51b815260206004820152601f60248201527f4661696c656420746f2073656e6420616d6f756e7420746f2073656c6c657200604482015260640161073e565b60006109e88634611ec9565b90508015610a8a57604051600090339083908381818185875af1925050503d8060008114610a32576040519150601f19603f3d011682016040523d82523d6000602084013e610a37565b606091505b5050905080610a885760405162461bcd60e51b815260206004820152601e60248201527f4661696c656420746f20726566756e642065786365737320616d6f756e740000604482015260640161073e565b505b6000898152600c6020908152604091829020600101805460ff60a01b1916905581518881529081018790528a9133917f25d1144310b3f5e9cb8ad2e2bd379aef97847a57087ab9cbcd95a06105a4629c910160405180910390a35050505050505050610af66001600855565b50565b6001600160a01b038216610b2357604051633250574960e11b81526000600482015260240161073e565b6000610b30838333611342565b9050836001600160a01b0316816001600160a01b031614610b7e576040516364283d7b60e01b81526001600160a01b038086166004830152602482018490528216604482015260640161073e565b50505050565b610b9f83838360405180602001604052806000815250610e6f565b505050565b600061058a82611194565b60006001600160a01b038216610bdb576040516322718ad960e21b81526000600482015260240161073e565b506001600160a01b031660009081526003602052604090205490565b610bff61143b565b610c096000611468565b565b610c13611244565b8133610c1e82610ba4565b6001600160a01b031614610c6e5760405162461bcd60e51b8152602060048201526017602482015276165bdd48191bc81b9bdd081bdddb881d1a1a5cc8139195604a1b604482015260640161073e565b6000838152600c60205260409020600101548390600160a01b900460ff1615610cd95760405162461bcd60e51b815260206004820152601e60248201527f4e465420697320616c7265616479206c697374656420666f722073616c650000604482015260640161073e565b8330610ce482610622565b6001600160a01b03161480610cfe5750610cfe33306110db565b610d635760405162461bcd60e51b815260206004820152603060248201527f4d61726b6574706c616365206973206e6f7420617070726f76656420746f207460448201526f1c985b9cd9995c881d1a1a5cc813919560821b606482015260840161073e565b60008411610db35760405162461bcd60e51b815260206004820152601f60248201527f5072696365206d7573742062652067726561746572207468616e207a65726f00604482015260640161073e565b60408051606081018252858152336020808301828152600184860181815260008c8152600c909452928690209451855590519301805491511515600160a01b026001600160a81b03199092166001600160a01b03949094169390931717909155905186907fd2ab19646d6f9fdd37206f962b4ebaab8a4a23ad87f7695e7e1736803cb8bf7490610e469088815260200190565b60405180910390a35050505050565b60606001805461059f90611df7565b6106563383836114ba565b610e7a848484610af9565b610b7e84848484611559565b6060610e9182611194565b5060008281526006602052604081208054610eab90611df7565b80601f0160208091040260200160405190810160405280929190818152602001828054610ed790611df7565b8015610f245780601f10610ef957610100808354040283529160200191610f24565b820191906000526020600020905b815481529060010190602001808311610f0757829003601f168201915b505050505090506000610f4260408051602081019091526000815290565b90508051600003610f54575092915050565b815115610f86578082604051602001610f6e929190611edc565b60405160208183030381529060405292505050919050565b610f8f84611682565b949350505050565b610f9f611244565b8033610faa82610ba4565b6001600160a01b031614610ffa5760405162461bcd60e51b8152602060048201526017602482015276165bdd48191bc81b9bdd081bdddb881d1a1a5cc8139195604a1b604482015260640161073e565b6000828152600c60205260409020600101548290600160a01b900460ff166110645760405162461bcd60e51b815260206004820152601a60248201527f4e4654206973206e6f74206c697374656420666f722073616c65000000000000604482015260640161073e565b6000838152600c602052604080822082815560010180546001600160a81b031916905551339185917fef1499b350e05776e60cd2ffcac001569a28e9d574e1f3adc1b3ab264f8ccffd9190a3505050565b6000826001600160a01b03166110ca83610ba4565b6001600160a01b0316149392505050565b6001600160a01b03918216600090815260056020908152604080832093909416825291909152205460ff1690565b61111161143b565b6001600160a01b03811661113b57604051631e4fbdf760e01b81526000600482015260240161073e565b610af681611468565b60006001600160e01b031982166380ac58cd60e01b148061117557506001600160e01b03198216635b5e139f60e01b145b8061058a57506301ffc9a760e01b6001600160e01b031983161461058a565b6000818152600260205260408120546001600160a01b03168061058a57604051637e27328960e01b81526004810184905260240161073e565b610b9f83838360016116f7565b6106568282604051806020016040528060008152506117fd565b600082815260066020526040902061120c8282611f52565b506040518281527ff8e1a15aba9398e019f0b49df1a4fde98ee17ae345cb5f6b5e2c27f5033e8ce79060200160405180910390a15050565b60095460ff1615610c095760405163d93c066560e01b815260040160405180910390fd5b60026008540361128b57604051633ee5aeb560e01b815260040160405180910390fd5b6002600855565b6001600160a01b0382166112bc57604051633250574960e11b81526000600482015260240161073e565b60006112ca83836000611342565b90506001600160a01b0381166112f657604051637e27328960e01b81526004810183905260240161073e565b836001600160a01b0316816001600160a01b031614610b7e576040516364283d7b60e01b81526001600160a01b038086166004830152602482018490528216604482015260640161073e565b6000828152600260205260408120546001600160a01b039081169083161561136f5761136f818486611814565b6001600160a01b038116156113ad5761138c6000856000806116f7565b6001600160a01b038116600090815260036020526040902080546000190190555b6001600160a01b038516156113dc576001600160a01b0385166000908152600360205260409020805460010190555b60008481526002602052604080822080546001600160a01b0319166001600160a01b0389811691821790925591518793918516917fddf252ad1be2c89b69c2b068fc378daa952ba7f163c4a11628f55a4df523b3ef91a4949350505050565b6007546001600160a01b03163314610c095760405163118cdaa760e01b815233600482015260240161073e565b600780546001600160a01b038381166001600160a01b0319831681179093556040519116919082907f8be0079c531659141344cd1fd0a4f28419497f9722a3daafe3b4186f6b6457e090600090a35050565b6001600160a01b0382166114ec57604051630b61174360e31b81526001600160a01b038316600482015260240161073e565b6001600160a01b03838116600081815260056020908152604080832094871680845294825291829020805460ff191686151590811790915591519182527f17307eab39ab6107e8899845ad3d59bd9653f200f220920489ca2b5937696c31910160405180910390a3505050565b6001600160a01b0383163b15610b7e57604051630a85bd0160e11b81526001600160a01b0384169063150b7a029061159b903390889087908790600401612011565b6020604051808303816000875af19250505080156115d6575060408051601f3d908101601f191682019092526115d39181019061204e565b60015b61163f573d808015611604576040519150601f19603f3d011682016040523d82523d6000602084013e611609565b606091505b50805160000361163757604051633250574960e11b81526001600160a01b038516600482015260240161073e565b805181602001fd5b6001600160e01b03198116630a85bd0160e11b1461167b57604051633250574960e11b81526001600160a01b038516600482015260240161073e565b5050505050565b606061168d82611194565b5060006116a560408051602081019091526000815290565b905060008151116116c557604051806020016040528060008152506116f0565b806116cf84611878565b6040516020016116e0929190611edc565b6040516020818303038152906040525b9392505050565b808061170b57506001600160a01b03821615155b156117cd57600061171b84611194565b90506001600160a01b038316158015906117475750826001600160a01b0316816001600160a01b031614155b801561175a575061175881846110db565b155b156117835760405163a9fbf51f60e01b81526001600160a01b038416600482015260240161073e565b81156117cb5783856001600160a01b0316826001600160a01b03167f8c5be1e5ebec7d5bd14f71427d1e84f3dd0314c0f7b2291e5b200ac8c7c3b92560405160405180910390a45b505b5050600090815260046020526040902080546001600160a01b0319166001600160a01b0392909216919091179055565b611807838361190b565b610b9f6000848484611559565b61181f838383611970565b610b9f576001600160a01b03831661184d57604051637e27328960e01b81526004810182905260240161073e565b60405163177e802f60e01b81526001600160a01b03831660048201526024810182905260440161073e565b60606000611885836119d3565b600101905060008167ffffffffffffffff8111156118a5576118a5611ba0565b6040519080825280601f01601f1916602001820160405280156118cf576020820181803683370190505b5090508181016020015b600019016f181899199a1a9b1b9c1cb0b131b232b360811b600a86061a8153600a85049450846118d957509392505050565b6001600160a01b03821661193557604051633250574960e11b81526000600482015260240161073e565b600061194383836000611342565b90506001600160a01b03811615610b9f576040516339e3563760e11b81526000600482015260240161073e565b60006001600160a01b03831615801590610f8f5750826001600160a01b0316846001600160a01b031614806119aa57506119aa84846110db565b80610f8f5750506000908152600460205260409020546001600160a01b03908116911614919050565b60008072184f03e93ff9f4daa797ed6e38ed64bf6a1f0160401b8310611a125772184f03e93ff9f4daa797ed6e38ed64bf6a1f0160401b830492506040015b6d04ee2d6d415b85acef81000000008310611a3e576d04ee2d6d415b85acef8100000000830492506020015b662386f26fc100008310611a5c57662386f26fc10000830492506010015b6305f5e1008310611a74576305f5e100830492506008015b6127108310611a8857612710830492506004015b60648310611a9a576064830492506002015b600a831061058a5760010192915050565b6001600160e01b031981168114610af657600080fd5b600060208284031215611ad357600080fd5b81356116f081611aab565b60005b83811015611af9578181015183820152602001611ae1565b50506000910152565b60008151808452611b1a816020860160208601611ade565b601f01601f19169290920160200192915050565b6020815260006116f06020830184611b02565b600060208284031215611b5357600080fd5b5035919050565b80356001600160a01b0381168114611b7157600080fd5b919050565b60008060408385031215611b8957600080fd5b611b9283611b5a565b946020939093013593505050565b634e487b7160e01b600052604160045260246000fd5b60008067ffffffffffffffff841115611bd157611bd1611ba0565b50604051601f19601f85018116603f0116810181811067ffffffffffffffff82111715611c0057611c00611ba0565b604052838152905080828401851015611c1857600080fd5b83836020830137600060208583010152509392505050565b60008060408385031215611c4357600080fd5b611c4c83611b5a565b9150602083013567ffffffffffffffff811115611c6857600080fd5b8301601f81018513611c7957600080fd5b611c8885823560208401611bb6565b9150509250929050565b600080600060608486031215611ca757600080fd5b611cb084611b5a565b9250611cbe60208501611b5a565b929592945050506040919091013590565b600060208284031215611ce157600080fd5b6116f082611b5a565b60008060408385031215611cfd57600080fd5b50508035926020909101359150565b60008060408385031215611d1f57600080fd5b611d2883611b5a565b915060208301358015158114611d3d57600080fd5b809150509250929050565b60008060008060808587031215611d5e57600080fd5b611d6785611b5a565b9350611d7560208601611b5a565b925060408501359150606085013567ffffffffffffffff811115611d9857600080fd5b8501601f81018713611da957600080fd5b611db887823560208401611bb6565b91505092959194509250565b60008060408385031215611dd757600080fd5b611de083611b5a565b9150611dee60208401611b5a565b90509250929050565b600181811c90821680611e0b57607f821691505b602082108103611e2b57634e487b7160e01b600052602260045260246000fd5b50919050565b634e487b7160e01b600052601160045260246000fd5b600060018201611e5957611e59611e31565b5060010190565b60018060a01b0384168152826020820152606060408201526000611e876060830184611b02565b95945050505050565b808202811582820484141761058a5761058a611e31565b600082611ec457634e487b7160e01b600052601260045260246000fd5b500490565b8181038181111561058a5761058a611e31565b60008351611eee818460208801611ade565b835190830190611f02818360208801611ade565b01949350505050565b601f821115610b9f57806000526020600020601f840160051c81016020851015611f325750805b601f840160051c820191505b8181101561167b5760008155600101611f3e565b815167ffffffffffffffff811115611f6c57611f6c611ba0565b611f8081611f7a8454611df7565b84611f0b565b6020601f821160018114611fb45760008315611f9c5750848201515b600019600385901b1c1916600184901b17845561167b565b600084815260208120601f198516915b82811015611fe45787850151825560209485019460019092019101611fc4565b50848210156120025786840151600019600387901b60f8161c191681555b50505050600190811b01905550565b6001600160a01b038581168252841660208201526040810183905260806060820181905260009061204490830184611b02565b9695505050505050565b60006020828403121561206057600080fd5b81516116f081611aab56fea264697066735822122024289ea0483a5d0d4eff7b328ddb3e626614952fd7ddcdd456c9c2aeb117b18564736f6c634300081b0033",
  "devdoc": {
    "errors": {
      "ERC721IncorrectOwner(address,uint256,address)": [
        {
          "details": "Indicates an error related to the ownership over a particular token. Used in transfers.",
          "params": {
            "owner": "Address of the current owner of a token.",
            "sender": "Address whose tokens are being transferred.",
            "tokenId": "Identifier number of a token."
          }
        }
      ],
      "ERC721InsufficientApproval(address,uint256)": [
        {
          "details": "Indicates a failure with the `operator`s approval. Used in transfers.",
          "params": {
            "operator": "Address that may be allowed to operate on tokens without being their owner.",
            "tokenId": "Identifier number of a token."
          }
        }
      ],
      "ERC721InvalidApprover(address)": [
        {
          "details": "Indicates a failure with the `approver` of a token to be approved. Used in approvals.",
          "params": {
            "approver": "Address initiating an approval operation."
          }
        }
      ],
      "ERC721InvalidOperator(address)": [
        {
          "details": "Indicates a failure with the `operator` to be approved. Used in approvals.",
          "params": {
            "operator": "Address that may be allowed to operate on tokens without being their owner."
          }
        }
      ],
      "ERC721InvalidOwner(address)": [
        {
          "details": "Indicates that an address can't be an owner. For example, `address(0)` is a forbidden owner in EIP-20. Used in balance queries.",
          "params": {
            "owner": "Address of the current owner of a token."
          }
        }
      ],
      "ERC721InvalidReceiver(address)": [
        {
          "details": "Indicates a failure with the token `receiver`. Used in transfers.",
          "params": {
            "receiver": "Address to which tokens are being transferred."
          }
        }
      ],
      "ERC721InvalidSender(address)": [
        {
          "details": "Indicates a failure with the token `sender`. Used in transfers.",
          "params": {
            "sender": "Address whose tokens are being transferred."
          }
        }
      ],
      "ERC721NonexistentToken(uint256)": [
        {
          "details": "Indicates a `tokenId` whose `owner` is the zero address.",
          "params": {
            "tokenId": "Identifier number of a token."
          }
        }
      ],
      "EnforcedPause()": [
        {
          "details": "The operation failed because the contract is paused."
        }
      ],
      "ExpectedPause()": [
        {
          "details": "The operation failed because the contract is not paused."
        }
      ],
      "OwnableInvalidOwner(address)": [
        {
          "details": "The owner is not a valid owner account. (eg. `address(0)`)"
        }
      ],
      "OwnableUnauthorizedAccount(address)": [
        {
          "details": "The caller account is not authorized to perform an operation."
        }
      ],
      "ReentrancyGuardReentrantCall()": [
        {
          "details": "Unauthorized reentrant call."
        }
      ]
    },
    "events": {
      "Approval(address,address,uint256)": {
        "details": "Emitted when `owner` enables `approved` to manage the `tokenId` token."
      },
      "ApprovalForAll(address,address,bool)": {
        "details": "Emitted when `owner` enables or disables (`approved`) `operator` to manage all of its assets."
      },
      "BatchMetadataUpdate(uint256,uint256)": {
        "details": "This event emits when the metadata of a range of tokens is changed. So that the third-party platforms such as NFT market could timely update the images and related attributes of the NFTs."
      },
      "MetadataUpdate(uint256)": {
        "details": "This event emits when the metadata of a token is changed. So that the third-party platforms such as NFT market could timely update the images and related attributes of the NFT."
      },
      "Paused(address)": {
        "details": "Emitted when the pause is triggered by `account`."
      },
      "Transfer(address,address,uint256)": {
        "details": "Emitted when `tokenId` token is transferred from `from` to `to`."
      },
      "Unpaused(address)": {
        "details": "Emitted when the pause is lifted by `account`."
      }
    },
    "kind": "dev",
    "methods": {
      "approve(address,uint256)": {
        "details": "See {IERC721-approve}."
      },
      "balanceOf(address)": {
        "details": "See {IERC721-balanceOf}."
      },
      "getApproved(uint256)": {
        "details": "See {IERC721-getApproved}."
      },
      "isApprovedForAll(address,address)": {
        "details": "See {IERC721-isApprovedForAll}."
      },
      "name()": {
        "details": "See {IERC721Metadata-name}."
      },
      "owner()": {
        "details": "Returns the address of the current owner."
      },
      "ownerOf(uint256)": {
        "details": "See {IERC721-ownerOf}."
      },
      "paused()": {
        "details": "Returns true if the contract is paused, and false otherwise."
      },
      "renounceOwnership()": {
        "details": "Leaves the contract without owner. It will not be possible to call `onlyOwner` functions. Can only be called by the current owner. NOTE: Renouncing ownership will leave the contract without an owner, thereby disabling any functionality that is only available to the owner."
      },
      "safeTransferFrom(address,address,uint256)": {
        "details": "See {IERC721-safeTransferFrom}."
      },
      "safeTransferFrom(address,address,uint256,bytes)": {
        "details": "See {IERC721-safeTransferFrom}."
      },
      "setApprovalForAll(address,bool)": {
        "details": "See {IERC721-setApprovalForAll}."
      },
      "supportsInterface(bytes4)": {
        "details": "See {IERC165-supportsInterface}"
      },
      "symbol()": {
        "details": "See {IERC721Metadata-symbol}."
      },
      "tokenURI(uint256)": {
        "details": "See {IERC721Metadata-tokenURI}."
      },
      "transferFrom(address,address,uint256)": {
        "details": "See {IERC721-transferFrom}."
      },
      "transferOwnership(address)": {
        "details": "Transfers ownership of the contract to a new account (`newOwner`). Can only be called by the current owner."
      }
    },
    "version": 1
  },
  "userdoc": {
    "kind": "user",
    "methods": {},
    "version": 1
  },
  "storageLayout": {
    "storage": [
      {
        "astId": 349,
        "contract": "contracts/Nft_MarketPlace.sol:NFTMarketplace",
        "label": "_name",
        "offset": 0,
        "slot": "0",
        "type": "t_string_storage"
      },
      {
        "astId": 351,
        "contract": "contracts/Nft_MarketPlace.sol:NFTMarketplace",
        "label": "_symbol",
        "offset": 0,
        "slot": "1",
        "type": "t_string_storage"
      },
      {
        "astId": 355,
        "contract": "contracts/Nft_MarketPlace.sol:NFTMarketplace",
        "label": "_owners",
        "offset": 0,
        "slot": "2",
        "type": "t_mapping(t_uint256,t_address)"
      },
      {
        "astId": 359,
        "contract": "contracts/Nft_MarketPlace.sol:NFTMarketplace",
        "label": "_balances",
        "offset": 0,
        "slot": "3",
        "type": "t_mapping(t_address,t_uint256)"
      },
      {
        "astId": 363,
        "contract": "contracts/Nft_MarketPlace.sol:NFTMarketplace",
        "label": "_tokenApprovals",
        "offset": 0,
        "slot": "4",
        "type": "t_mapping(t_uint256,t_address)"
      },
      {
        "astId": 369,
        "contract": "contracts/Nft_MarketPlace.sol:NFTMarketplace",
        "label": "_operatorApprovals",
        "offset": 0,
        "slot": "5",
        "type": "t_mapping(t_address,t_mapping(t_address,t_bool))"
      },
      {
        "astId": 1488,
        "contract": "contracts/Nft_MarketPlace.sol:NFTMarketplace",
        "label": "_tokenURIs",
        "offset": 0,
        "slot": "6",
        "type": "t_mapping(t_uint256,t_string_storage)"
      },
      {
        "astId": 8,
        "contract": "contracts/Nft_MarketPlace.sol:NFTMarketplace",
        "label": "_owner",
        "offset": 0,
        "slot": "7",
        "type": "t_address"
      },
      {
        "astId": 1772,
        "contract": "contracts/Nft_MarketPlace.sol:NFTMarketplace",
        "label": "_status",
        "offset": 0,
        "slot": "8",
        "type": "t_uint256"
      },
      {
        "astId": 1653,
        "contract": "contracts/Nft_MarketPlace.sol:NFTMarketplace",
        "label": "_paused",
        "offset": 0,
        "slot": "9",
        "type": "t_bool"
      },
      {
        "astId": 3296,
        "contract": "contracts/Nft_MarketPlace.sol:NFTMarketplace",
        "label": "tokenIdCounter",
        "offset": 0,
        "slot": "10",
        "type": "t_uint256"
      },
      {
        "astId": 3298,
        "contract": "contracts/Nft_MarketPlace.sol:NFTMarketplace",
        "label": "fee",
        "offset": 0,
        "slot": "11",
        "type": "t_uint256"
      },
      {
        "astId": 3342,
        "contract": "contracts/Nft_MarketPlace.sol:NFTMarketplace",
        "label": "listings",
        "offset": 0,
        "slot": "12",
        "type": "t_mapping(t_uint256,t_struct(Listing)3337_storage)"
      }
    ],
    "types": {
      "t_address": {
        "encoding": "inplace",
        "label": "address",
        "numberOfBytes": "20"
      },
      "t_bool": {
        "encoding": "inplace",
        "label": "bool",
        "numberOfBytes": "1"
      },
      "t_mapping(t_address,t_bool)": {
        "encoding": "mapping",
        "key": "t_address",
        "label": "mapping(address => bool)",
        "numberOfBytes": "32",
        "value": "t_bool"
      },
      "t_mapping(t_address,t_mapping(t_address,t_bool))": {
        "encoding": "mapping",
        "key": "t_address",
        "label": "mapping(address => mapping(address => bool))",
        "numberOfBytes": "32",
        "value": "t_mapping(t_address,t_bool)"
      },
      "t_mapping(t_address,t_uint256)": {
        "encoding": "mapping",
        "key": "t_address",
        "label": "mapping(address => uint256)",
        "numberOfBytes": "32",
        "value": "t_uint256"
      },
      "t_mapping(t_uint256,t_address)": {
        "encoding": "mapping",
        "key": "t_uint256",
        "label": "mapping(uint256 => address)",
        "numberOfBytes": "32",
        "value": "t_address"
      },
      "t_mapping(t_uint256,t_string_storage)": {
        "encoding": "mapping",
        "key": "t_uint256",
        "label": "mapping(uint256 => string)",
        "numberOfBytes": "32",
        "value": "t_string_storage"
      },
      "t_mapping(t_uint256,t_struct(Listing)3337_storage)": {
        "encoding": "mapping",
        "key": "t_uint256",
        "label": "mapping(uint256 => struct NFTMarketplace.Listing)",
        "numberOfBytes": "32",
        "value": "t_struct(Listing)3337_storage"
      },
      "t_string_storage": {
        "encoding": "bytes",
        "label": "string",
        "numberOfBytes": "32"
      },
      "t_struct(Listing)3337_storage": {
        "encoding": "inplace",
        "label": "struct NFTMarketplace.Listing",
        "members": [
          {
            "astId": 3332,
            "contract": "contracts/Nft_MarketPlace.sol:NFTMarketplace",
            "label": "price",
            "offset": 0,
            "slot": "0",
            "type": "t_uint256"
          },
          {
            "astId": 3334,
            "contract": "contracts/Nft_MarketPlace.sol:NFTMarketplace",
            "label": "seller",
            "offset": 0,
            "slot": "1",
            "type": "t_address"
          },
          {
            "astId": 3336,
            "contract": "contracts/Nft_MarketPlace.sol:NFTMarketplace",
            "label": "active",
            "offset": 20,
            "slot": "1",
            "type": "t_bool"
          }
        ],
        "numberOfBytes": "64"
      },
      "t_uint256": {
        "encoding": "inplace",
        "label": "uint256",
        "numberOfBytes": "32"
      }
    }
  }
}